{
  "contractName": "Raffle",
  "abi": [
    {
      "constant": true,
      "inputs": [],
      "name": "seed",
      "outputs": [
        {
          "name": "",
          "type": "uint256"
        }
      ],
      "payable": false,
      "stateMutability": "view",
      "type": "function"
    },
    {
      "constant": true,
      "inputs": [],
      "name": "oracle",
      "outputs": [
        {
          "name": "",
          "type": "address"
        }
      ],
      "payable": false,
      "stateMutability": "view",
      "type": "function"
    },
    {
      "constant": true,
      "inputs": [],
      "name": "owner",
      "outputs": [
        {
          "name": "",
          "type": "address"
        }
      ],
      "payable": false,
      "stateMutability": "view",
      "type": "function"
    },
    {
      "constant": true,
      "inputs": [],
      "name": "raffleEnd",
      "outputs": [
        {
          "name": "",
          "type": "uint256"
        }
      ],
      "payable": false,
      "stateMutability": "view",
      "type": "function"
    },
    {
      "constant": true,
      "inputs": [
        {
          "name": "",
          "type": "uint256"
        }
      ],
      "name": "addressList",
      "outputs": [
        {
          "name": "addr",
          "type": "address"
        },
        {
          "name": "initialize",
          "type": "bool"
        }
      ],
      "payable": false,
      "stateMutability": "view",
      "type": "function"
    },
    {
      "constant": true,
      "inputs": [],
      "name": "itemPrice",
      "outputs": [
        {
          "name": "",
          "type": "uint256"
        }
      ],
      "payable": false,
      "stateMutability": "view",
      "type": "function"
    },
    {
      "inputs": [
        {
          "name": "_raffleEnd",
          "type": "uint256"
        },
        {
          "name": "_itemPrice",
          "type": "uint256"
        }
      ],
      "payable": false,
      "stateMutability": "nonpayable",
      "type": "constructor"
    },
    {
      "constant": false,
      "inputs": [],
      "name": "enterRaffle",
      "outputs": [],
      "payable": true,
      "stateMutability": "payable",
      "type": "function"
    },
    {
      "constant": false,
      "inputs": [],
      "name": "returnMoney",
      "outputs": [
        {
          "name": "",
          "type": "bool"
        }
      ],
      "payable": false,
      "stateMutability": "nonpayable",
      "type": "function"
    },
    {
      "constant": false,
      "inputs": [
        {
          "name": "_oracle",
          "type": "address"
        }
      ],
      "name": "chooseOracle",
      "outputs": [
        {
          "name": "",
          "type": "address"
        }
      ],
      "payable": false,
      "stateMutability": "nonpayable",
      "type": "function"
    },
    {
      "constant": false,
      "inputs": [
        {
          "name": "_seed",
          "type": "uint256"
        }
      ],
      "name": "oracleSeed",
      "outputs": [],
      "payable": false,
      "stateMutability": "nonpayable",
      "type": "function"
    },
    {
      "constant": false,
      "inputs": [],
      "name": "chooseWinner",
      "outputs": [],
      "payable": false,
      "stateMutability": "nonpayable",
      "type": "function"
    }
  ],
  "bytecode": "0x6060604052341561000f57600080fd5b604051604080610d3d83398101604052808051906020019091908051906020019091905050336000806101000a81548173ffffffffffffffffffffffffffffffffffffffff021916908373ffffffffffffffffffffffffffffffffffffffff1602179055508142016003819055508060048190555060006002819055505050610ca08061009d6000396000f3006060604052600436106100af576000357c0100000000000000000000000000000000000000000000000000000000900463ffffffff1680632cfcc539146100b45780637d94792a146100be5780637dc0d1d0146100e75780638da5cb5b1461013c5780639311931214610191578063a558d893146101be578063b810fb43146101e7578063cd38aa8714610255578063d0aa7e251461026a578063dac6db1c146102e3578063e8ec056b1461030c575b600080fd5b6100bc61032f565b005b34156100c957600080fd5b6100d16105cd565b6040518082815260200191505060405180910390f35b34156100f257600080fd5b6100fa6105d3565b604051808273ffffffffffffffffffffffffffffffffffffffff1673ffffffffffffffffffffffffffffffffffffffff16815260200191505060405180910390f35b341561014757600080fd5b61014f6105f9565b604051808273ffffffffffffffffffffffffffffffffffffffff1673ffffffffffffffffffffffffffffffffffffffff16815260200191505060405180910390f35b341561019c57600080fd5b6101a461061e565b604051808215151515815260200191505060405180910390f35b34156101c957600080fd5b6101d1610754565b6040518082815260200191505060405180910390f35b34156101f257600080fd5b610208600480803590602001909190505061075a565b604051808373ffffffffffffffffffffffffffffffffffffffff1673ffffffffffffffffffffffffffffffffffffffff168152602001821515151581526020019250505060405180910390f35b341561026057600080fd5b6102686107b7565b005b341561027557600080fd5b6102a1600480803573ffffffffffffffffffffffffffffffffffffffff169060200190919050506109b3565b604051808273ffffffffffffffffffffffffffffffffffffffff1673ffffffffffffffffffffffffffffffffffffffff16815260200191505060405180910390f35b34156102ee57600080fd5b6102f6610b1b565b6040518082815260200191505060405180910390f35b341561031757600080fd5b61032d6004808035906020019091905050610b21565b005b610337610bbc565b600454341015151561034857600080fd5b600354421115151561035957600080fd5b6000809054906101000a900473ffffffffffffffffffffffffffffffffffffffff1673ffffffffffffffffffffffffffffffffffffffff163373ffffffffffffffffffffffffffffffffffffffff16141515156103b557600080fd5b600160009054906101000a900473ffffffffffffffffffffffffffffffffffffffff1673ffffffffffffffffffffffffffffffffffffffff163373ffffffffffffffffffffffffffffffffffffffff161415151561041257600080fd5b60408051908101604052803373ffffffffffffffffffffffffffffffffffffffff168152602001600115158152509050600680548060010182816104569190610bee565b9160005260206000209001600083909190915060008201518160000160006101000a81548173ffffffffffffffffffffffffffffffffffffffff021916908373ffffffffffffffffffffffffffffffffffffffff16021790555060208201518160000160146101000a81548160ff02191690831515021790555050505034600560003373ffffffffffffffffffffffffffffffffffffffff1673ffffffffffffffffffffffffffffffffffffffff1681526020019081526020016000206000828254019250508190555080600760003373ffffffffffffffffffffffffffffffffffffffff1673ffffffffffffffffffffffffffffffffffffffff16815260200190815260200160002060008201518160000160006101000a81548173ffffffffffffffffffffffffffffffffffffffff021916908373ffffffffffffffffffffffffffffffffffffffff16021790555060208201518160000160146101000a81548160ff02191690831515021790555090505050565b60025481565b600160009054906101000a900473ffffffffffffffffffffffffffffffffffffffff1681565b6000809054906101000a900473ffffffffffffffffffffffffffffffffffffffff1681565b600080600354421015151561063257600080fd5b600560003373ffffffffffffffffffffffffffffffffffffffff1673ffffffffffffffffffffffffffffffffffffffff168152602001908152602001600020549050600081111561074b576000600560003373ffffffffffffffffffffffffffffffffffffffff1673ffffffffffffffffffffffffffffffffffffffff168152602001908152602001600020819055503373ffffffffffffffffffffffffffffffffffffffff166108fc829081150290604051600060405180830381858888f19350505050151561074a5780600560003373ffffffffffffffffffffffffffffffffffffffff1673ffffffffffffffffffffffffffffffffffffffff1681526020019081526020016000208190555060009150610750565b5b600191505b5090565b60035481565b60068181548110151561076957fe5b90600052602060002090016000915090508060000160009054906101000a900473ffffffffffffffffffffffffffffffffffffffff16908060000160149054906101000a900460ff16905082565b60008060035442101515156107cb57600080fd5b6000600254141515156107dd57600080fd5b6000809054906101000a900473ffffffffffffffffffffffffffffffffffffffff1673ffffffffffffffffffffffffffffffffffffffff163373ffffffffffffffffffffffffffffffffffffffff1614151561083857600080fd5b61084b6000600160068054905003610b87565b91506005600060068481548110151561086057fe5b906000526020600020900160000160009054906101000a900473ffffffffffffffffffffffffffffffffffffffff1673ffffffffffffffffffffffffffffffffffffffff1673ffffffffffffffffffffffffffffffffffffffff1681526020019081526020016000205490506000600560006006858154811015156108e157fe5b906000526020600020900160000160009054906101000a900473ffffffffffffffffffffffffffffffffffffffff1673ffffffffffffffffffffffffffffffffffffffff1673ffffffffffffffffffffffffffffffffffffffff168152602001908152602001600020819055506000809054906101000a900473ffffffffffffffffffffffffffffffffffffffff1673ffffffffffffffffffffffffffffffffffffffff166108fc829081150290604051600060405180830381858888f1935050505015156109af57600080fd5b5050565b60008060009054906101000a900473ffffffffffffffffffffffffffffffffffffffff1673ffffffffffffffffffffffffffffffffffffffff163373ffffffffffffffffffffffffffffffffffffffff16141515610a1057600080fd5b60001515600760003373ffffffffffffffffffffffffffffffffffffffff1673ffffffffffffffffffffffffffffffffffffffff16815260200190815260200160002060000160149054906101000a900460ff161515141515610a7257600080fd5b8173ffffffffffffffffffffffffffffffffffffffff166000809054906101000a900473ffffffffffffffffffffffffffffffffffffffff1673ffffffffffffffffffffffffffffffffffffffff16141515610b115781600160006101000a81548173ffffffffffffffffffffffffffffffffffffffff021916908373ffffffffffffffffffffffffffffffffffffffff160217905550819050610b16565b600090505b919050565b60045481565b600160009054906101000a900473ffffffffffffffffffffffffffffffffffffffff1673ffffffffffffffffffffffffffffffffffffffff163373ffffffffffffffffffffffffffffffffffffffff16141515610b7d57600080fd5b8060028190555050565b60008282840160025460405180828152602001915050604051809103902060019004811515610bb257fe5b0603905092915050565b6040805190810160405280600073ffffffffffffffffffffffffffffffffffffffff1681526020016000151581525090565b815481835581811511610c1557818360005260206000209182019101610c149190610c1a565b5b505050565b610c7191905b80821115610c6d57600080820160006101000a81549073ffffffffffffffffffffffffffffffffffffffff02191690556000820160146101000a81549060ff021916905550600101610c20565b5090565b905600a165627a7a72305820f8cb040784e06ba4eddba90cbfbef38db1b532c53ae6fc5fc7053089ab3dedc70029",
  "source": "pragma solidity ^0.4.17;\n\ncontract Raffle {\n\n    address public owner;\n    address public oracle;\n\n    uint public seed;\n\n    uint public raffleEnd;\n    uint public itemPrice;\n\n    //address[] public addressList;\n    mapping(address => uint) rafflePot;\n    \n    struct addressStruct {\n        address addr;\n        bool initialize;\n    } \n\n    addressStruct[] public addressList;\n    mapping(address => addressStruct) addressIn;\n\n    //initializes raffle and sets owner and time left in the raffle\n    function Raffle(\n        uint _raffleEnd,\n        uint _itemPrice\n    ) public \n    {\n        owner = msg.sender;\n        //sets the end time for raffle\n        raffleEnd = now + _raffleEnd;\n        itemPrice = _itemPrice;\n        seed = 0;\n    }\n\n    //enter the raffle\n    function enterRaffle() public payable {\n        //requires the money sent to be equal to the itemPrice\n        require(msg.value >= itemPrice);\n        //requires the raffle to still be ongoing\n        require(now <= raffleEnd);\n        require(msg.sender != owner);\n        require(msg.sender != oracle);\n\n        //addressList.push(msg.sender);\n\n        addressStruct memory entered = addressStruct(msg.sender, true);\n        addressList.push(entered);\n        rafflePot[msg.sender] += msg.value;\n        addressIn[msg.sender] = entered;\n    }\n\n    //returns money if they have it\n    function returnMoney() public returns (bool) {\n        \n        require(now >= raffleEnd);\n\n        uint money = rafflePot[msg.sender];\n        if (money > 0) {\n            rafflePot[msg.sender] = 0;\n            if (!msg.sender.send(money)) {\n                // No need to call throw here, just reset the amount owing\n                rafflePot[msg.sender] = money;\n                return false;\n            }\n        }\n        return true;\n\n    }\n    \n    //owner sets an oracle\n    function chooseOracle(address _oracle) public returns (address) {\n        // check new oracle is not owner and message sent by owner\n        require(msg.sender == owner);\n        require(addressIn[msg.sender].initialize == false);\n\n        if (owner != _oracle) {\n            oracle = _oracle;\n            return _oracle;\n        }\n        return 0;\n    }\n    //oracle provides a seed\n    function oracleSeed(uint _seed) public {\n        require(msg.sender == oracle);\n        seed = _seed;\n    }\n\n    //generates a randomNumber \n    function rand(uint min, uint max) private returns (uint) {\n        return uint(sha3(seed))%(min+max)-min;\n    }\n\n    //chooses winner based on oracle seed\n    function chooseWinner() public {\n        require(now >= raffleEnd);\n        require(seed != 0);\n        require(msg.sender == owner);\n\n        uint winnerIndex = rand(0, addressList.length-1);\n        uint winningAmount = rafflePot[addressList[winnerIndex].addr];\n\n        rafflePot[addressList[winnerIndex].addr] = 0;\n\n        owner.transfer(winningAmount);\n        \n    }\n\n    \n    \n}",
  "sourcePath": "/Users/jessechung/raffleApp/raffle/contracts/raffle.sol",
  "compiler": {
    "name": "solc",
    "version": "0.4.19+commit.c4cbbb05.Emscripten.clang"
  },
  "schemaVersion": "1.0.1",
  "updatedAt": "2018-03-05T03:26:01.356Z"
}