{
  "contractName": "raffle",
  "abi": [
    {
      "constant": true,
      "inputs": [],
      "name": "owner",
      "outputs": [
        {
          "name": "",
          "type": "address"
        }
      ],
      "payable": false,
      "stateMutability": "view",
      "type": "function"
    },
    {
      "constant": true,
      "inputs": [],
      "name": "raffleEnd",
      "outputs": [
        {
          "name": "",
          "type": "uint256"
        }
      ],
      "payable": false,
      "stateMutability": "view",
      "type": "function"
    },
    {
      "constant": true,
      "inputs": [],
      "name": "itemPrice",
      "outputs": [
        {
          "name": "",
          "type": "uint256"
        }
      ],
      "payable": false,
      "stateMutability": "view",
      "type": "function"
    },
    {
      "inputs": [
        {
          "name": "_owner",
          "type": "address"
        },
        {
          "name": "_raffleEnd",
          "type": "uint256"
        },
        {
          "name": "_itemPrice",
          "type": "uint256"
        }
      ],
      "payable": false,
      "stateMutability": "nonpayable",
      "type": "constructor"
    },
    {
      "constant": false,
      "inputs": [],
      "name": "enterRaffle",
      "outputs": [],
      "payable": true,
      "stateMutability": "payable",
      "type": "function"
    }
  ],
  "bytecode": "0x6060604052341561000f57600080fd5b60405160608061028483398101604052808051906020019091908051906020019091908051906020019091905050826000806101000a81548173ffffffffffffffffffffffffffffffffffffffff021916908373ffffffffffffffffffffffffffffffffffffffff160217905550814201600181905550806002819055505050506101e58061009f6000396000f300606060405260043610610062576000357c0100000000000000000000000000000000000000000000000000000000900463ffffffff1680632cfcc539146100675780638da5cb5b14610071578063a558d893146100c6578063dac6db1c146100ef575b600080fd5b61006f610118565b005b341561007c57600080fd5b610084610188565b604051808273ffffffffffffffffffffffffffffffffffffffff1673ffffffffffffffffffffffffffffffffffffffff16815260200191505060405180910390f35b34156100d157600080fd5b6100d96101ad565b6040518082815260200191505060405180910390f35b34156100fa57600080fd5b6101026101b3565b6040518082815260200191505060405180910390f35b6002543414151561012857600080fd5b600154421115151561013957600080fd5b34600360003373ffffffffffffffffffffffffffffffffffffffff1673ffffffffffffffffffffffffffffffffffffffff16815260200190815260200160002060008282540192505081905550565b6000809054906101000a900473ffffffffffffffffffffffffffffffffffffffff1681565b60015481565b600254815600a165627a7a7230582087159aed63afd704029881ae9bf627863f52ee30e3d44f84eba6d2fbc52bef7c0029",
  "source": "pragma solidity ^0.4.17;\n\ncontract raffle {\n\n    address public owner;\n    uint public raffleEnd;\n    uint public itemPrice;\n    mapping(address => uint) rafflePot;\n\n    //initializes raffle and sets owner and time left in the raffle\n    function raffle(\n        address _owner,\n        uint _raffleEnd,\n        uint _itemPrice\n    ) public \n    {\n        owner = _owner;\n        //sets the end time for raffle\n        raffleEnd = now + _raffleEnd;\n        itemPrice = _itemPrice;\n    }\n\n    //enter the raffle\n    function enterRaffle() public payable {\n        //requires the money sent to be equal to the itemPrice\n        require(msg.value == itemPrice);\n        //requires the raffle to still be ongoing\n        require(now <= raffleEnd);\n\n        rafflePot[msg.sender] += msg.value;\n    }\n\n    \n    \n}",
  "sourcePath": "/Users/jessechung/raffleApp/raffle/contracts/raffle.sol",
  "compiler": {
    "name": "solc",
    "version": "0.4.19+commit.c4cbbb05.Emscripten.clang"
  },
  "schemaVersion": "1.0.1",
  "updatedAt": "2018-02-28T08:27:39.718Z"
}